:020000040000FA
:06000000E1EF00F0120028
:020006000000F8
:08000800D9CFE6FFE1CFD9FFDB
:10001000020EE126936A816AFFD7DE6ADD6ADECFCF
:1000200000F0DDCF01F0D890015004E6080E005C2E
:10003000000E015819E2030EDF5206E0DFCFF3FF96
:10004000E846FE0BF306FCE1816EE80EE66E030E59
:10005000E66E14D8E552E552DF2A010E01E3DB2AF1
:10006000DF2A01E3DB2ADBD7020EE15C02E2E16A70
:10007000E552E16EE552E7CFD9FF1200D9CFE6FF96
:10008000E1CFD9FF040EE126DE6ADD6ADECF00F0A3
:10009000DDCF01F0FD0EDBCF02F0FE0EDBCF03F073
:1000A00001500318E8AE02D0033404D00250005CC3
:1000B000035001581DE2020EDB6A030EDB6A020EDA
:1000C000DBCF00F0030EDBCF01F0D890015004E647
:1000D000F20E005C010E015806E2020EDB2A030E4E
:1000E00001E3DB2AECD7DF2A010E01E3DB2ACED7BE
:1000F000040EE15C02E2E16AE552E16EE552E7CF0F
:04010000D9FF120011
:0C010400060EF66E000EF76E000EF86E90
:1001100000010900F550856F0900F550866F03E175
:10012000856701D03DD00900F550806F0900F5507A
:10013000816F0900F550826F09000900F550E96EE2
:100140000900F550EA6E090009000900F550836FB7
:100150000900F550846F09000900F6CF87F0F7CF4A
:1001600088F0F8CF89F080C0F6FF81C0F7FF82C029
:10017000F8FF0001835302E1845307E00900F550C2
:10018000EE6E8307F8E28407F9D787C0F6FF88C0D0
:10019000F7FF89C0F8FF00018507000E865BBFD717
:0201A00012004B
:0E01A200000EF36E00EE00F0060E01D8120003
:1001B000EA6002D0EE6AFCD7F350E9601200EE6A02
:0201C000FCD76A
:0E01C20015EE00F025EE00F0F86A059C82ECC8
:0E01D00000F0EFEC00F004EC00F0FBD71200A2
:0201DE0012000D
:00000001FF
