:0300000002098072
:0C098000787FE4F6D8FD7581190209C7E4
:0A0A29000810000500060007000891
:10080000D281D282E4F518F519C3E5199404E518EC
:10081000648094804003020942C2A0D2A3D2A2D233
:10082000A120A417E51925E02408F8760008760130
:100830000519E51970020518120A0C20A517E5190B
:1008400025E02408F876000876020519E5197002FB
:100850000518120A0C20A617E51925E02408F876D9
:10086000000876030519E51970020518120A0CC272
:10087000A1D2A3D2A2D2A020A417E51925E0240872
:10088000F876000876040519E51970020518120AB1
:100890000C20A517E51925E02408F8760008760550
:1008A0000519E51970020518120A0C20A617E5199A
:1008B00025E02408F876000876060519E519700287
:1008C0000518120A0CC2A2D2A3D2A1D2A020A4174A
:1008D000E51925E02408F876000876070519E519DA
:1008E00070020518120A0C20A517E51925E0240846
:1008F000F876000876080519E51970020518120A3D
:100900000C20A617E51925E02408F87600087609DA
:100910000519E51970020518120A0CC2A3D2A1D25A
:10092000A2D2A030A503020809E51925E02408F8A1
:10093000E4F608F60519E51970020518120A0C020A
:100940000809AE10AF118E088F09EF4E602BAE1262
:10095000AF138E0A8F0BEF4E601FAE14AF158E0CC7
:100960008F0DEF4E6013AE16AF178E0E8F0FEF4E3A
:100970006007C281D282020804D281C282020804C6
:100A0C00E4FFFEE4FDFC0DBD00010CBC01F8BDF4DF
:0C0A1C00F50FBF00010EEF64644E70E7A0
:010A280022AB
:10098C00020800E493A3F8E493A34003F68001F279
:10099C0008DFF48029E493A3F85407240CC8C3336C
:1009AC00C4540F4420C8834004F456800146F6DF3B
:1009BC00E4800B0102040810204080900A29E47E98
:1009CC00019360BCA3FF543F30E509541FFEE49330
:1009DC00A360010ECF54C025E060A840B8E493A3F7
:1009EC00FAE493A3F8E493A3C8C582C8CAC583CA22
:1009FC00F0A3C8C582C8CAC583CADFE9DEE780BEDA
:010A330000C2
:00000001FF
