:020000040000FA
:06000000A0EF01F0120068
:020006000000F8
:08000800D9CFE6FFE1CFD9FFDB
:100010001C0EE126E70EDE6EDD6A210EF36E020E87
:10002000F3CFDBFF030EDB6ACB0EF36E040EF3CFD0
:10003000DBFF050EDB6A6B0EF36E060EF3CFDBFF04
:10004000070EDB6A2D0EF36E080EF3CFDBFF090EF1
:10005000DB6A6E0EF36E0A0EF3CFDBFF0B0EDB6A6C
:10006000EE0EF36E0C0EF3CFDBFF0D0EDB6A230EEC
:10007000F36E0E0EF3CFDBFF0F0EDB6AEF0EF36EA7
:10008000100EF3CFDBFF110EDB6A6F0EF36E120E54
:10009000F3CFDBFF130EDB6A140EDB6A150EDB6A8F
:1000A000160EDB6A170EDB6A180EDB6A190EDB6AA6
:1000B0001A0EDB6A1B0EDB6A956A926AD9CF14F0BE
:1000C000DACF15F0020E086E096A140EDBCF0DF0C0
:1000D000150EDBCF0EF072EC01F014500624E96E21
:1000E00015500720EA6EEF50836E808080928094D6
:1000F0008096D9CF14F0DACF15F0020E086E096A97
:10010000160EDBCF0DF0170EDBCF0EF072EC01F008
:1001100014500624E96E15500720EA6EEF50836EE6
:100120008090808280948096D9CF14F0DACF15F039
:10013000020E086E096A1A0EDBCF0DF01B0EDBCF24
:100140000EF072EC01F014500624E96E15500720F1
:10015000EA6EEF50836E8090809280848096180EB5
:10016000DB2A190E01E3DB2A180EDBCF14F0190E7F
:10017000DBCF15F0166A1634000E161807E6D88085
:10018000500E1454C30E1554000E165409E21A0EE4
:10019000DB2A1B0E01E3DB2A180EDB6A190EDB6A71
:1001A000D9501A0FE96EDACFEAFF0A0EEE1801E114
:1001B000ED503EE1160EDB2A170E01E3DB2A1A0E84
:1001C000DB6A1B0EDB6A180EDB6A190EDB6AD9507C
:1001D000160FE96EDACFEAFF0A0EEE1801E1ED50D4
:1001E00027E1140EDB2A150E01E3DB2A160EDB6A6B
:1001F000170EDB6A180EDB6A190EDB6AD950140F72
:10020000E96EDACFEAFF0A0EEE1801E1ED5010E1D7
:10021000140EDB6A150EDB6A160EDB6A170EDB6A3C
:100220001A0EDB6A1B0EDB6A180EDB6A190EDB6A1C
:1002300045D71C0EE15C02E2E16AE552E16EE5524F
:06024000E7CFD9FF120018
:0A024600060EF66E000EF76E000EB5
:10025000F86E00010900F550856F0900F550866FB2
:1002600003E1856701D03DD00900F550806F09009A
:10027000F550816F0900F550826F09000900F550B3
:10028000E96E0900F550EA6E090009000900F55011
:10029000836F0900F550846F09000900F6CF87F0DD
:1002A000F7CF88F0F8CF89F080C0F6FF81C0F7FF64
:1002B00082C0F8FF0001835302E1845307E0090084
:1002C000F550EE6E8307F8E28407F9D787C0F6FF92
:1002D00088C0F7FF89C0F8FF00018507000E865B24
:0402E000BFD7120072
:0C02E40008C012F008500D02F4CF07F023
:1002F000F3CF06F009500E02F4CF09F0F3CF08F067
:100300000D02F3500726F4500822E86A0922125021
:100310000E02F3500726F4500822E86A0922000C66
:10032000000EF36E00EE00F0060E01D81200EA6037
:1003300002D0EE6AFCD7F350E9601200EE6AFCD7F7
:1003400015EE00F025EE00F0F86A019C23EC01F0B8
:0C035000AEEC01F004EC00F0FBD7120052
:02035C0012008D
:00000001FF
