:020000040000FA
:0600000007EF01F0120001
:020006000000F8
:08000800D9CFE6FFE1CFD9FFDB
:10001000180EE126956A926A836AE70EDE6EDD6A43
:10002000210EF36E020EF3CFDBFF030EDB6ACB0E65
:10003000F36E040EF3CFDBFF050EDB6A6B0EF36E7F
:10004000060EF3CFDBFF070EDB6A2D0EF36E080EF4
:10005000F3CFDBFF090EDB6A6E0EF36E0A0EF3CFF1
:10006000DBFF0B0EDB6AEE0EF36E0C0EF3CFDBFF45
:100070000D0EDB6A230EF36E0E0EF3CFDBFF0F0EB9
:10008000DB6AEF0EF36E100EF3CFDBFF110EDB6AAF
:100090006F0EF36E120EF3CFDBFF130EDB6A100E42
:1000A000F36E140EF3CFDBFF150EDB6A010E806ECC
:1000B000120EDB50836E11D8020E806E100EDB50D4
:1000C000836E0BD8AAD7180EE15C02E2E16AE55212
:1000D000E16EE552E7CFD9FF1200D9CFE6FFE1CFBD
:1000E000D9FF040EE126DE6ADD6ADECF02F0DDCF45
:1000F00003F0D890035004E6030E025C000E035890
:100100001DE2020EDB6A030EDB6A020EDBCF02F099
:10011000030EDBCF03F0D890035004E6F20E025C2E
:10012000010E035806E2020EDB2A030E01E3DB2A6E
:10013000ECD7DF2A010E01E3DB2AD7D7040EE15CFE
:1001400002E2E16AE552E16EE552E7CFD9FF120023
:10015000060EF66E000EF76E000EF86E0001090036
:10016000F550856F0900F550866F03E1856701D072
:100170003DD00900F550806F0900F550816F0900EE
:10018000F550826F09000900F550E96E0900F5503D
:10019000EA6E090009000900F550836F0900F55067
:1001A000846F09000900F6CF87F0F7CF88F0F8CF09
:1001B00089F080C0F6FF81C0F7FF82C0F8FF000120
:1001C000835302E1845307E00900F550EE6E830784
:1001D000F8E28407F9D787C0F6FF88C0F7FF89C027
:0E01E000F8FF00018507000E865BBFD71200F6
:0201EE00000E01
:1001F000F36E00EE00F0060E01D81200EA6002D0A5
:0E020000EE6AFCD7F350E9601200EE6AFCD7FC
:02020E0015EEEB
:1002100000F025EE00F0F86A019CA8EC00F015EC67
:0A02200001F004EC00F0FBD712001F
:02022A001200C0
:00000001FF
