:1008A7005368756268616D0053686173747269009B
:100800007F381208B77F0C1208B77F011208B77F34
:10081000801208B77BFF7A0879A712085F7FC012A1
:1008200008B77BFF7A0879AF12085F7F1C1208B700
:0208300080F94D
:0E08B7008FA0C291C292D29312088AC29322DD
:0E08C5008FA0D291C292D29312088AC29322BF
:06085F008B088A09890ADA
:10086500E4F50BF50CAB08AA09A90A850C82850BE2
:1008750083120832FF600D1208C5050CE50C70E502
:04088500050B80E1FE
:01088900224C
:10088A00E4FFFEE4FDFC0DBD00010CBC01F8BDF463
:0C089A00F50FBF00010EEF64644E70E724
:0108A600222F
:030000000208D320
:0C08D300787FE4F6D8FD75810C02080067
:10083200BB010CE58229F582E5833AF583E022507B
:1008420006E92582F8E622BBFE06E92582F8E222C5
:0D085200E58229F582E5833AF583E49322DF
:00000001FF
