:020000040000FA
:0600000031EF01F01200D7
:020006000000F8
:0800080020D8480EE66E71D805
:10001000E552450EE66E6DD8E5524C0EE66E69D897
:10002000E5524C0EE66E65D8E5524F0EE66E61D88D
:10003000E5521C0EE66E48D8E5523C0EE66EE66AC6
:100040006DD8E552E552F5D71200956A946A0F0E05
:10005000E66EE66A63D8E552E552300EE66E34D8B5
:10006000E552050EE66EE66A59D8E552E552300EC5
:10007000E66E2AD8E552020EE66EE66A4FD8E552E1
:10008000E552300EE66E20D8E552030EE66EE66AC3
:1000900045D8E552E552380EE66E16D8E552010E07
:1000A000E66E12D8E552060EE66E0ED8E552C50E83
:1000B000E66E0AD8E5520C0EE66E06D8E5521C0E26
:1000C000E66E02D8E5521200D9CFE6FFE1CFD9FFA4
:1000D000FE0EDB50836E829282908284040EE66E66
:1000E000E66A1CD8E552E5528294E552E7CFD9FF83
:1000F0001200D9CFE6FFE1CFD9FFFE0EDB50836EB1
:10010000828282908284040EE66EE66A07D8E55207
:10011000E5528294E552E7CFD9FF1200D9CFE6FF2E
:10012000E1CFD9FF040EE126DE6ADD6ADECF00F002
:10013000DDCF01F0FD0EDBCF02F0FE0EDBCF03F0D2
:1001400001500318E8AE02D0033404D00250005C22
:10015000035001581DE2020EDB6A030EDB6A020E39
:10016000DBCF00F0030EDBCF01F0D890015004E6A6
:10017000F20E005C010E015806E2020EDB2A030EAD
:1001800001E3DB2AECD7DF2A010E01E3DB2ACED71D
:10019000040EE15C02E2E16AE552E16EE552E7CF6E
:0401A000D9FF120071
:0C01A400060EF66E000EF76E000EF86EF0
:1001B00000010900F550856F0900F550866F03E1D5
:1001C000856701D03DD00900F550806F0900F550DA
:1001D000816F0900F550826F09000900F550E96E42
:1001E0000900F550EA6E090009000900F550836F17
:1001F0000900F550846F09000900F6CF87F0F7CFAA
:1002000088F0F8CF89F080C0F6FF81C0F7FF82C088
:10021000F8FF0001835302E1845307E00900F55021
:10022000EE6E8307F8E28407F9D787C0F6FF88C02F
:10023000F7FF89C0F8FF00018507000E865BBFD776
:020240001200AA
:0E024200000EF36E00EE00F0060E01D8120062
:10025000EA6002D0EE6AFCD7F350E9601200EE6A61
:02026000FCD7C9
:0E02620015EE00F025EE00F0F86A059CD2ECD7
:0E02700000F03FEC01F004EC00F0FBD71200B0
:02027E0012006C
:00000001FF
