:020000040000FA
:0600000080EF00F0120089
:020006000000F8
:08000800060EF66E000EF76E05
:10001000000EF86E00010900F550856F0900F550DB
:10002000866F03E1856701D03DD00900F550806FF0
:100030000900F550816F0900F550826F0900090031
:10004000F550E96E0900F550EA6E09000900090053
:10005000F550836F0900F550846F09000900F6CF51
:1000600087F0F7CF88F0F8CF89F080C0F6FF81C025
:10007000F7FF82C0F8FF0001835302E1845307E0D9
:100080000900F550EE6E8307F8E28407F9D787C0C0
:10009000F6FF88C0F7FF89C0F8FF00018507000E52
:0600A000865BBFD71200D1
:0A00A6001E0E936E956A926A819017
:1000B000F19E0F0EC16E836A010E806E819A818C53
:1000C000818E81B403D08180E70E836E818A819C0A
:1000D000818E81B603D08190EE0E836EEFD7120031
:1000E000000EF36E00EE00F0060E01D81200EA607A
:1000F00002D0EE6AFCD7F350E9601200EE6AFCD73A
:1001000015EE00F025EE00F0F86A019C04EC00F01A
:0C0110008EEC00F053EC00F0FBD7120066
:02011C001200CF
:00000001FF
