:020000040000FA
:06000000E1EF01F0120027
:020006000000F8
:08000800D9CFE6FFE1CFD9FFDB
:10001000140EE126D9CFE9FFDACFEAFF680EEE6EC3
:10002000650EEE6E6C0EEE6EEE6E6F0EEE6EEE6A9E
:10003000EE6AEE6AEE6AEE6AD9500A0FE96EDACF1E
:10004000EAFF730EEE6E680EEE6E750EEE6E620EC9
:10005000EE6E680EEE6E610EEE6E6D0EEE6EEE6A78
:10006000450EEE6EEE6E2DD8800EE66E69D8E55226
:10007000D9CFE6FFDACFE6FF10D9E552E552C00E40
:10008000E66E5ED8E552D9500A0FE66E000EDA2011
:10009000E66E03D9E552E552180EE66E51D8E552E8
:1000A0003C0EE66EE66AB5D8E552E552F5D7140E79
:1000B000E15C02E2E16AE552E16EE552E7CFD9FF89
:1000C0001200946A0F0E956EE66EE66AA2D8E552AB
:1000D000E552300EE66E88D8E5520F0EE66EE66AFF
:1000E00098D8E552E552300EE66E7ED8E552020E03
:1000F000E66EE66A8ED8E552E552300EE66E74D8AA
:10010000E552040EE66EE66A84D8E552E552200E0A
:10011000E66E6AD8E552280EE66E12D8E552060E53
:10012000E66E0ED8E552010EE66E0AD8E552800E54
:10013000E66E06D8E5520C0EE66E02D8E5521200C5
:10014000D9CFE6FFE1CFD9FFE652FE0EDB50DF6EDE
:10015000829282908284F00EDF14836E050EE66E2A
:10016000E66A57D8E552E55282948284FE0EDB504F
:100170000F0BE76EFE0EE7CFDBFFDB50100DFE0E20
:10018000F3CFDBFFDB50836E8294E552E552E7CF7D
:10019000D9FF1200D9CFE6FFE1CFD9FFE652FE0E1C
:1001A000DB50DF6E828282908284F00EDF14836ED9
:1001B000050EE66EE66A2DD8E552E55282948284F9
:1001C000FE0EDB500F0BE76EFE0EE7CFDBFFDB50C2
:1001D000100DFE0EF3CFDBFFDB50836E8294E552F1
:1001E000E552E7CFD9FF1200D9CFE6FFE1CFD9FF23
:1001F000FE0EDB50836E829282908284050EE66E44
:10020000E66A07D8E552E5528294E552E7CFD9FF76
:100210001200D9CFE6FFE1CFD9FF040EE126DE6A56
:10022000DD6ADECF00F0DDCF01F0FD0EDBCF02F0A6
:10023000FE0EDBCF03F001500318E8AE02D003340A
:1002400004D00250005C035001581DE2020EDB6A2C
:10025000030EDB6A020EDBCF00F0030EDBCF01F0F2
:10026000D890015004E6F20E005C010E015806E23F
:10027000020EDB2A030E01E3DB2AECD7DF2A010E94
:1002800001E3DB2ACED7040EE15C02E2E16AE5522B
:10029000E16EE552E7CFD9FF1200D9CFE6FFE1CFFB
:1002A000D9FF020EE126DE6ADD6AFD0EDBCF00F02B
:1002B000FE0EDBCF01F0DE500024E96EDD500120A0
:1002C000EA6EEF5015E0FD0EDBCF00F0FE0EDBCF47
:1002D00001F0DE500024E96EDD500120EA6EEF509F
:1002E000E66E58DFE552DF2A010E01E3DB2ADDD797
:1002F000020EE15C02E2E16AE552E16EE552E7CF0F
:04030000D9FF12000F
:0C030400060EF66E000EF76E000EF86E8E
:1003100000010900F550856F0900F550866F03E173
:10032000856701D03DD00900F550806F0900F55078
:10033000816F0900F550826F09000900F550E96EE0
:100340000900F550EA6E090009000900F550836FB5
:100350000900F550846F09000900F6CF87F0F7CF48
:1003600088F0F8CF89F080C0F6FF81C0F7FF82C027
:10037000F8FF0001835302E1845307E00900F550C0
:10038000EE6E8307F8E28407F9D787C0F6FF88C0CE
:10039000F7FF89C0F8FF00018507000E865BBFD715
:0203A000120049
:0E03A200000EF36E00EE00F0060E01D8120001
:1003B000EA6002D0EE6AFCD7F350E9601200EE6A00
:0203C000FCD768
:0E03C20015EE00F025EE00F0F86A059C82ECC6
:0E03D00001F0EFEC01F004EC00F0FBD712009E
:0203DE0012000B
:00000001FF
