:030000000208B142
:0C08B100787FE4F6D8FD75810702089BF3
:03000300020800F0
:10080000C0E0C0F0C083C082C0D075D000C000C0BE
:1008100001C002C003C004C005C006C007D2A2C206
:10082000A312087ED007D006D005D004D003D00292
:0F083000D001D000D0D0D082D083D0F0D0E03231
:0300130002083FA1
:10083F00C0E0C0F0C083C082C0D075D000C000C07F
:10084F0001C002C003C004C005C006C007C2A2D2C7
:10085F00A312087ED007D006D005D004D003D00253
:0F086F00D001D000D0D0D082D083D0F0D0E032F2
:10089B00D2AFD2BAD2A8D2AAD288D28AD2A2D2A3AB
:0608AB00C2A2C2A380FA04
:10087E00E4FFFEE4FDFC0DBD00010CBC01F8BDF46F
:0C088E00F50FBF00010EBE01EABFF4E749
:01089A00223B
:00000001FF
